:020000040800F2
:10000000800800205502000865300008BD21000866
:1000100061300008B1040008FD3300080000000052
:100020000000000000000000000000009131000806
:10003000750500080000000069300008553200080E
:100040006F0200086F0200086F0200086F020008CC
:100050006F0200086F0200086F0200086F020008BC
:100060006F0200086F0200086F0200086F020008AC
:100070006F0200086F0200086F0200086F0200089C
:100080006F0200086F0200086F0200086F0200088C
:100090006F0200086F0200086F0200086F0200087C
:1000A0006F0200086F0200086F0200086F0200086C
:1000B0006F0200086F0200086F0200086F0200085C
:1000C0006F0200086F0200086F0200086F0200084C
:1000D0006F0200086F0200086F0200086F0200083C
:1000E0006F0200086F0200086F0200086F0200082C
:1000F0006F0200086F0200086F0200086F0200081C
:100100006F0200086F0200086F0200086F0200080B
:100110006F0200086F0200086F0200086F020008FB
:100120006F0200086F0200086F0200086F020008EB
:100130006F0200086F0200086F0200086F020008DB
:100140006F0200086F0200086F0200086F020008CB
:100150006F0200086F0200086F0200086F020008BB
:100160006F0200086F0200086F0200086F020008AB
:100170006F0200086F0200086F0200080000000014
:100180006F0200086F02000800F002F800F052F859
:1001900014A696E8000CB244B344DA4501D100F04D
:1001A00049F8BAE80F000FA696E83000A5EB040561
:1001B00004EB0607AAEB0704A7F101074FEA1515A0
:1001C0004FEA3414A4F10104AC4201D300F032F838
:1001D00013F0010F18BFFB1A43F0010300F001F800
:1001E000DBE718473039000050390000103A24BFCF
:1001F00078C878C1FAD8520724BF30C830C144BF8C
:1002000004680C6070470000704700000023002461
:1002100000250026103A28BF78C1FBD8520728BF16
:1002200030C148BF0B6070471FB503F04BFC1FBDCA
:1002300010B510BD00F002F91146FFF7F5FF03F00D
:100240006DF900F020F903B4FFF7F2FF03BC00F0F2
:1002500027F900000948804709480047FEE7FEE704
:10026000FEE7FEE7FEE7FEE7FEE7FEE7FEE7FEE766
:1002700004480549054A064B704700000133000851
:1002800089010008800200208008002080040020EE
:100290008004002053EA020C00F069802DE9F04B45
:1002A0004FF00006002B1FBFB3FA83F503FA05F4E5
:1002B00024FA05F65E4012BF1643B2FA82F502FA3E
:1002C00005F4C5F120051EBF22FA05FC44EA0C0422
:1002D000203556EA044C4FEA144418BF641C4FF012
:1002E00000084FF00009904271EB030C39D300294C
:1002F00019BFB1FA81F701FA07F6B0FA80F700FAF0
:1003000007F6C7F120071EBF20FA07FC46EA0C06D5
:100310002037B6FBF4FCA7EB0507103F07F01F0BD7
:10032000CBF120062CFA06F60CFA0BFB44BFB346C1
:100330000026202FA4BF5E464FF0000B5BEA060CA0
:1003400008BF4FF0010B19EB0B0948EB0608ABFB9C
:10035000027C06FB02CC0BFB03CCC01B71EB0C0137
:10036000C1E70B46024641464846BDE8F08B13B54F
:10037000084318BF4FF0FF300146AFF30080BDE8DF
:100380001C40704710B5203AC0F00B80B1E81850FF
:10039000A0E81850B1E81850A0E81850203ABFF46F
:1003A000F5AF5FEA027C24BFB1E81850A0E818500E
:1003B00044BF18C918C0BDE810405FEA827C24BF62
:1003C00051F8043B40F8043B08BF7047D20728BFF0
:1003D00031F8023B48BF11F8012B28BF20F8023B3F
:1003E00048BF00F8012B70474FF0000200B51346DC
:1003F00094469646203922BFA0E80C50A0E80C5045
:10040000B1F12001BFF4F7AF090728BFA0E80C50F5
:1004100048BF0CC05DF804EB890028BF40F8042BEE
:1004200008BF704748BF20F8022B11F0804F18BF5B
:1004300000F8012B7047704770477047754600F011
:100440002BF8AE4605006946534620F00700854666
:1004500018B020B5FFF70CFFBDE820404FF00006B4
:100460004FF000074FF000084FF0000BAC46ACE82F
:10047000C009ACE8C009ACE8C009ACE8C00921F08B
:1004800007018D46704710B50446AFF30080204643
:10049000BDE81040FFF7D7BE00487047200000209D
:1004A00001491820ABBEFEE726000200704700009D
:1004B000FEE700002DE9F04784B040F20048C4F2A6
:1004C00002088A46064640464FF4007100224FF06B
:1004D000000900F03BF9802040F2DC1540EA4600BC
:1004E000C2F200058DF8090064240DF1090102AA89
:1004F00028460123009401F0EDF80DF10B010DF1F8
:100500000A02284601238DF80B90009401F0E2F8CE
:100510009DF80A7040464FF40071012200F016F970
:1005200040464FF40071002227EA0A0700F00EF956
:100530007E2000EA46008DF80D000DF10D0103AAA2
:1005400028460123009401F0C5F80DF10F010DF1CB
:100550000E02284601238DF80F70009401F0BAF8BE
:1005600040464FF40071012200F0F0F804B0BDE8FD
:10057000F087000070470000B0B5044600F0ECF8CA
:10058000054640F21000C2F200000078611C18BF5E
:10059000044400BF00F0E0F8401BA042FAD3B0BD15
:1005A0002DE9F04F83B000F1200200F13E4741F603
:1005B0000045009207F1FF77C4F2020508224FEAD6
:1005C000B726A84208BF072200254FF000084FF0C9
:1005D0000009072E38BF4FEAB72201920AE000BF98
:1005E00009F1010908F10208B9F1100F05F104053C
:1005F00000F0A2800F68012202FA09FE17EA0E0A33
:10060000EED0D1F804C003220CF003077E1E02FADC
:1006100008F4012E6FEA040B12D88468CE6804EA4D
:100620000B0406FA08F634438460446824EA0E0694
:10063000CCF3001404FA09F42643466004E000BF3A
:10064000032F01D103271EE0C6688C6806EA0B065B
:1006500004FA08F42643022FC66014D16FF0030297
:10066000009E02EA590756F807C005F01C040F2245
:100670000B69A2402CEA0202A3401A43F251D1F8BE
:1006800004C00CF00307026807FA08F302EA0B0241
:100690001A431CF4403F0260A2D0002243F64403F8
:1006A0000292C4F202031A6843F6004442F4804204
:1006B0001A601A68C4F2010402F480420292029A9B
:1006C00029F003024FF6084C2244CFF6FF7C52F883
:1006D0000C3005F00C070F26BE40B343019E06FA0E
:1006E00007F73B4342F80C30A2684B6842EA0A071E
:1006F00043F60C4CDE0258BF22EA0A07A760C4F298
:10070000010CDCF800209E0242EA0A0758BF22EAE8
:100710000A07CCF8007062689E0342EA0A0758BFD5
:1007200022EA0A0767602268DB0342EA0A0758BF29
:1007300022EA0A07276053E703B0BDE8F08F000004
:100740000069084018BF012070470000002A08BF58
:10075000090481617047000040F27C20C2F2000071
:1007600000687047002804BF01207047F0B581B0D1
:10077000044690F83D0028B9002084F83C0020464B
:1007800000F01EFB242084F83D002068016821F061
:1007900001010160016841F400410160016821F438
:1007A0000041016000F0CEFC636848F2A16CC0F229
:1007B000010C40F60011C0F23D0163453CBF48F218
:1007C0008041C0F21E01884202D2012001B0F0BD7A
:1007D0004DF68361C4F21B31A0FB01122168970C16
:1007E000D1F804E04FF496762EF03F0545EA9245A5
:1007F0004D60774348F638160D6AC0F24106A7FBF4
:10080000067625F03F07634538BF960C721C3A43C5
:100810000A62CA6948F2A0664CF6FF77C0F2010688
:10082000B34222EA07020BD801385B00B0FBF3F0B9
:1008300001306FF31F30042898BF04201BE000BF75
:10084000A768013857B119277B43B0FBF3F001309B
:100850006FF31F3070B100F5804007E003EB4303F6
:10086000B0FBF3F001306FF31F3018B100F500401A
:1008700001E000BF01201043C8610868D4E90723E4
:1008800020F0C000104318430860886848F2FF3227
:1008900004F10C0790438CCF18431043A66988607D
:1008A000C86820F0FF0038433043C860086840F053
:1008B0000100086000202021206484F83D1020639E
:1008C00084F83E0001B0F0BD2DE9F04383B01F462F
:1008D000164689460446FFF73FFF94F83D1020294D
:1008E00024D10546206800BF816989071AD5FFF722
:1008F00033FF411B20681A29F6D381698907F3D594
:1009000000202021206384F83D1084F83E00216CF3
:1009100041F02001216484F83C00022003B0BDE8CE
:10092000F08300BF94F83C10012903D1022003B0EA
:10093000BDE8F083012184F83C100168C90703D1A8
:10094000016841F001010160016840F2040821F4EE
:1009500000610160222184F83D10102184F83E10CE
:100960000021216466626785618DC0F201082185DE
:10097000A8F500310439E162E16A02680A9F42F495
:10098000806211F5803F026018BF012942D10168E1
:1009900041F48071016020464FF0011100223B4676
:1009A000009501F06BFC58B120680068C00544BF99
:1009B0004FF400702064012003B0BDE8F08300BF55
:1009C0002069B0F5804F2BD149F00100C0B22168F9
:1009D0003A460861A8F1020120462B4601F034FD99
:1009E0000028E8D1208D00285AD002284ED00128B6
:1009F0006ED121680A6822F480620A6000220292A5
:100A00004A6902928A690292029A0A6842F4007262
:100A10000A6078E00829BAD0216B1129B7D0BAE76B
:100A2000062000EAD916206806F1F001016108F1FC
:100A3000040120463A462B4601F006FD0028BAD1B3
:100A400020685FFA89F10161A8F1020120463A4667
:100A50002B4601F0F9FC0028ADD10020029020685F
:100A6000002241693B460291816902910299016825
:100A700041F48071016020464FF00111009501F0B2
:100A8000FDFB002890D146F0F100A0E721680A683C
:100A900022F480620A600A6842F400621CE000BF2F
:100AA00000200290206841690291816902910299B7
:100AB000016841F400710160202084F83D000020AD
:100AC00084F83E0084F83C0003B0BDE8F08300BF2A
:100AD00021680A6842F480620A60002202924A6930
:100AE00002928969029102990DE000BF10690870B5
:100AF000606A218D01306062481E2085618D013958
:100B000061850104D8D080B203280FD802284AD0CA
:100B100001282DD1204639462A4601F001FD002842
:100B20007FF449AF2068616A0069E0E720463946F2
:100B30002A4601F0F5FC00287FF43DAF2068616A89
:100B400000690870606A2268411C208D616201386A
:100B50002085638D013B638553695B07D1D580B2E6
:100B60000328C3D1106820F480601060BEE700BF86
:100B70002046414600223B46009501F07FFB0028BD
:100B80007FF419AF2068616A026822F48062026013
:100B900000690870606A218D01306062481E2085FE
:100BA000608D013860852046414600223B46009515
:100BB00001F064FB00287FF4FEAE2068616A0268E1
:100BC00042F40072026000690870606A2268411C89
:100BD0006162218D01392185618D0139618511693C
:100BE000417085E72DE9F04383B01E4617468946DC
:100BF0000446FFF7B1FD94F83D10202924D10546A5
:100C0000206800BF816989071AD5FFF7A5FD411B40
:100C100020681A29F6D381698907F3D5002020219D
:100C2000206384F83D1084F83E00216C41F02001DF
:100C3000216484F83C00022003B0BDE8F08300BFCB
:100C400094F83C10012903D1022003B0BDE8F083E1
:100C5000012184F83C100168C90703D1016841F003
:100C600001010160016840F2020821F400610160A5
:100C7000212184F83D10102184F83E1000212164C8
:100C800067626685618DC0F201082185A8F10211B5
:100C9000E162E16A0A9E11F5803F18BF01291DD16A
:100CA000016841F48071016020464FF0011100227B
:100CB0003346009501F0E2FA50B120680068C005A3
:100CC00044BF4FF400702064012003B0BDE8F083FE
:100CD0002069B0F5804F07D1FE2015E00829DFD04C
:100CE000216B1229DCD0DFE7062000EAD910216849
:100CF000F030086108F10601204632462B4601F02B
:100D0000A3FB0028E0D1FF20216800EA0900086168
:100D10002046414632462B4601F096FB0028D3D1AF
:100D20000020029020684169029180690290029837
:100D300006E000BF204631462A4601F041FA18BBC2
:100D4000208D68B3204631462A4601F031FCD8B9DF
:100D5000606A2168024612F8013B0B616262628D93
:100D6000013A6285228D531E23854F697F07E1D5A5
:100D70001B04DFD0437802300B616062608D013864
:100D80006085901E2085D5E7206C04289CD12068C2
:100D9000016841F400710160012003B0BDE8F083F7
:100DA0002068016841F400710160202084F83D0052
:100DB000002084F83E0084F83C0003B0BDE8F083D6
:100DC000B0B586B0006845F60001C4F20001002409
:100DD0008842CDE90444CDE9024401942CD045F287
:100DE0000041C4F2000188424FD143F6300500941F
:100DF000C4F20205286801A940F0020028602868B2
:100E000000F0020000900098C02001901220CDE96F
:100E10000204032004900420059040F20040C4F234
:100E20000200FFF7BDFB0094286940F40010286120
:100E3000286900F4001026E043F630050094C4F25F
:100E40000205286801A940F002002860286800F027
:100E50000200009000984FF4406001901220CDE90C
:100E60000204032004900420059040F20040C4F2E4
:100E70000200FFF795FB0094286940F48000286188
:100E8000286900F480000090009806B0B0BD000012
:100E900040F2100040F27C21C2F20000C2F20001D8
:100EA00000780A68104408607047000080B543F677
:100EB0000040C4F20200016841F400710160016861
:100EC00041F480610160016841F480710160032098
:100ED00000F076F8002000F005F800F027F8002078
:100EE00080BD000070B540F21006C2F2000640F26C
:100EF00018013278C2F200014FF47A730968B3FB2B
:100F0000F2F20446B1FBF2F1084600F083FD0F2C2B
:100F10004FF0010508D838B94FF0FF3021460022C4
:100F2000002500F021F87460284670BD82B00020D2
:100F300043F640010190C4F202014A6842F4804243
:100F40004A604A6802F480420192019A009008685F
:100F500040F080500860086800F0805000900098D1
:100F6000072002B000F02CB810B54EF60C5CCEF2A3
:100F7000000CDCF80030C3F3022E8EF00704042CC2
:100F800028BF0424BEF103034FF0FF3E0EFA04F421
:100F900038BF0023A14399400EFA03F39A4311434B
:100FA00000F00F0200F160430901043A03F56443C5
:100FB0006244002848BF02F10C03197010BD000004
:100FC0004EF60C51CEF200010A684FF6FF031A40AC
:100FD00060F30A2242F0806040F0FD7008607047C4
:100FE000002804BF012070472DE9F04143F60808AE
:100FF000C4F202080446D8F8F8030D4600F00700D2
:10100000814207D988F8F853D8F8F80300F00700B0
:10101000A84277D12068810717D5410705D5D8F8B0
:10102000001041F4E051C8F80010010705D5D8F8C8
:10103000001041F46041C8F80010D8F80010A26810
:1010400021F0F0011143C8F80010C00740D1D8F8D2
:10105000F80300F00700854207D288F8F853D8F863
:10106000F80300F00700A8424CD12068410707D5DB
:10107000D8F80010E26821F4E0511143C8F80010DC
:10108000000708D5D8F80000216920F4604040EA44
:10109000C100C8F8000000F07DF8D8F8001043F651
:1010A000DE22C1F30311C0F60002515C40F21802C7
:1010B00020FA01F140F21400C2F200000068C2F20E
:1010C00000021160FFF70EFF0020BDE8F08100BFB5
:1010D0006068811E022907D258F8081C89015CBF8C
:1010E0000120BDE8F08111E0012807D158F8081C63
:1010F00089035CBF0120BDE8F08107E058F8081CB7
:10110000890703D40120BDE8F08100BFD8F80010A2
:1011100021F003010843C8F80000FFF71DFB064655
:1011200041F28837D8F80000616800F00C00B0EB9D
:10113000810F8CD0FFF710FB801BB842F2D903203F
:10114000BDE8F08140F2180043F60801C2F2000049
:10115000C4F202010068096843F6EE22C1F382215D
:10116000C0F60002515CC8407047000040F2180011
:1011700043F60801C2F20000C4F2020100680968E7
:1011800043F6EE22C1F34231C0F60002515CC84082
:101190007047000010B543F60404C4F2020461680D
:1011A000C1F3810142F20040C0F2F400DFE801F037
:1011B00002040A0210BD00BF41F20020C0F27A0012
:1011C00010BD00BF216801F03F0221682368490279
:1011D000C3F3881106D4A1FB00010023FFF75AF8DE
:1011E00007E000BF41F20020C0F27A004843B0FBA4
:1011F000F2F021680222C1F3014102EB4101B0FB90
:10120000F1F010BD002804BF012070472DE9F04126
:1012100082B00446007843F60006C007C4F2020616
:101220000CD0B06800F00C00042840F081803068D9
:10123000800303D56068002800F06881207880076B
:101240001BD5B06810F00C0F09D0B06800F00C008E
:10125000082840F087807068400200F18380306881
:10126000800703D5E068012840F05081306821698B
:1012700020F0F80040EAC10030602078000713D465
:10128000207840072AD4A569002D00F03A81B06883
:1012900000F00C00082840F0A580012D40F00E81E0
:1012A000012002B0BDE8F0816069002800F0828072
:1012B0000020C4F247200121C0F8801EFFF74CFA3D
:1012C000054600BF706F8007DAD4FFF745FA401B70
:1012D0000228F7D9032002B0BDE8F081306C5FEA44
:1012E000C0080AD400200190306C40F08050306477
:1012F000306C00F080500190019847F20007C4F272
:1013000000073868C00547D4386840F480703860FA
:10131000FFF722FA054600BF3868C0053CD4FFF746
:101320001BFA401B0228F7D9032002B0BDE8F08168
:10133000B06800F00C00082803D1706840023FF547
:1013400076AF61683068B1F5803F07D0B1F5A02F66
:1013500040F09A8040F480203060306840F4803063
:1013600030609AE0E068002840F20000C4F24720B4
:101370005CD001210160FFF7EFF905463068800776
:101380003FF574AFFFF7E8F9401B0228F6D90320B8
:1013900002B0BDE8F08100BFA168306F012905D01F
:1013A000052955D140F004003067306F40F001004E
:1013B000306756E00020C4F247200021C0F8801EAC
:1013C000FFF7CAF9054600BF706F80077FF558AF79
:1013D000FFF7C2F9401B0228F6D9032002B0BDE88E
:1013E000F08100BF0027C4F2472700203866FFF7CE
:1013F000B3F9022D05460DD13068800140F18A8095
:10140000FFF7AAF9401B02284FF00300F4D902B0FD
:10141000BDE8F0813068800173D5FFF79DF9401B6E
:1014200002284FF00300F5D9F1E700BF0021016069
:10143000FFF792F9054600BF306880077FF51DAFC2
:10144000FFF78AF9401B02284FF00300F4D9DEE7CA
:1014500020F001003067306F002920F00400306771
:101460007AD0FFF779F9054641F28837306F800767
:1014700000F18480FFF770F9401BB842F6D90320D1
:1014800002B0BDE8F08100BF20F4803030603068E9
:10149000002920F4802030607AD0FFF75DF90546FE
:1014A000306880033FF5CAAEFFF756F9401B642849
:1014B000F6D9032002B0BDE8F08100BF7068E16991
:1014C00000F480028A4221D1216A00F03F028A4260
:1014D0001CD147F6C071626A0140B1EB821F15D181
:1014E000A16A4FF6FF73C903994300F44032A1F596
:1014F00080318A420AD1E16A00F07060B0EB016F7E
:1015000004D1002002B0BDE8F08100BF012002B08C
:10151000BDE8F08104F11C052FCD084340EA82109C
:10152000D9034FF6FF729143A1F5803140EA05607F
:101530000843706001203866FFF70EF9044600BFCB
:1015400030688001DDD4FFF707F9001B02284FF057
:101550000300F5D95BE700BFFFF7FEF8054641F24F
:10156000883700BF306F800708D5FFF7F5F8401BBC
:10157000B8424FF00300F5D949E700BFB8F1000FBA
:101580003FF581AE306C20F0805030647BE600BFC8
:10159000FFF7E2F8054600BF306880037FF54EAEE6
:1015A000FFF7DAF8401B64284FF00300F4D92EE768
:1015B00070B528B1416A29B100210161142106E00A
:1015C000012070BD4168B1F5827F02D01C2100224C
:1015D00042500026866290F8511029B980F8506078
:1015E000054600F03DF82846022180F8511090E8A9
:1015F0002E0002F482720C6803F4044324F04004C9
:101600000C601A4405F4006305691A4405F00203EE
:1016100045691A4405F001038569C4691A4405F453
:1016200000731A4404F03803046A1A4404F0800377
:10163000846A1A4304F400531A430A60436A04227A
:1016400002EA154203F010031A444A60CA6922F400
:101650000062CA610121466580F85110304670BDB4
:1016600080B586B043F200010068C4F20101002297
:1016700088420592CDE903220292019202D006B07F
:1016800080BD00BF43F630000092C4F202004369FF
:1016900043F480534361436903F480530093009BF8
:1016A0000092036843F001030360006800F001004A
:1016B00000900098E02001900220CDE90202032072
:1016C00004900520059001F5504001A9FEF768FF40
:1016D00006B080BD2DE9F04383B01E4615460F4687
:1016E0000446FFF739F894F851108146012909D1D1
:1016F000002F4FF0010018BF002D0FD103B0BDE83F
:10170000F08300BF6068B0F5827F0DD104294FF0EF
:101710000200F3D1A1680029EAD0EFE7002EEDD056
:1017200094F85000012803D1022003B0BDE8F083F3
:10173000012084F8500094F85100002104281CBFB7
:10174000052084F851006165A563E687A6872763B5
:10175000E6862068A686216461640168490603D490
:10176000016841F0400101606168731EE268B1FAEE
:1017700081F1B3FA83F3DDF8288049095B09B2F5FA
:10178000006F41EA030165D131B137F8021BC16036
:101790002763E08E0138E086012518F1010032D17F
:1017A00002E000BFFEF7D8FFE08E18B9E08F0028F6
:1017B00000F0B8802068816889070CD5E18E51B1AE
:1017C000012D08D1216B002531F8022BC260216365
:1017D000E18E0139E1868168C907E3D0E18F0029F4
:1017E000E0D0C068A16B012521F8020BA163E08F56
:1017F0000138E087D6E700BFFEF7AEFFA0EB090097
:10180000404580F0A580E08E18B9E08F002800F0F8
:1018100089802068816889070CD5E18E51B1012D3E
:1018200008D1216B002531F8022BC2602163E18EC3
:101830000139E1868168C907DED0E18F0029DBD05C
:10184000C068A16B012521F8020BA163E08F01386C
:10185000E087D1E739B139780173206B013020631B
:10186000E08E0138E086012518F1010032D101E057
:10187000FEF772FFE08E10B9E08F002852D020688A
:10188000816889070ED5E18E61B1012D0AD1216BE6
:10189000002509780173216B206801312163E18EF5
:1018A0000139E1868168C907E2D0E18F0029DFD0E4
:1018B000C068A16B01250870A06B0130A063E08FA8
:1018C0000138E087D4E700BFFEF746FFA0EB090030
:1018D00040453DD2E08E08B9E08F18B3206881689A
:1018E00089070ED5E18E61B1012D0AD1216B00254A
:1018F00009780173216B206801312163E18E013980
:10190000E1868168C907DFD0E18F0029DCD0C0689B
:10191000A16B01250870A06B0130A063E08F013836
:10192000E087D1E72046022101224346CDF800900E
:1019300001F09CFBB0B1606D40F02000606520209C
:101940006065002084F85000012003B0BDE8F083FA
:10195000012084F85100002084F85000032003B0D7
:10196000BDE8F08340F21800C2F20000006849F6BA
:101970008171C1F25E61A0FB0101480D4FF47A71E3
:10198000484302906068B0F5827F0BD120468021E9
:1019900000224346CDF8009001F068FB0028CAD130
:1019A00021E000BF0298F0B102980138029020684F
:1019B0008168090617D50299A9B1029901390291E6
:1019C000816809060FD5029969B10299013902911E
:1019D0008168090607D5029929B102990139029156
:1019E00080680006DED4A06838B900200190206825
:1019F000C1680191806801900198012084F851002C
:101A0000002084F85000606D002818BF012003B04A
:101A1000BDE8F083411E0020B0EB116F1CBF012018
:101A200070474EF21002CEF2000251604EF6235182
:101A3000CEF20001F0230B70072190601160704717
:101A4000002804BF0120704710B5044690F84100FB
:101A500028B9002084F84000204600F021F8242016
:101A600084F841002068C16821F40051C16020461B
:101A700001F050FC2068016921F490410161416945
:101A800021F02A014161C16841F40051C160002088
:101A90002021606484F8411084F84210606310BD16
:101AA00080B586B041F200410068C4F20101002215
:101AB00088420592CDE903220292019202D006B03B
:101AC00080BD00BF43F630000092C4F202004369BB
:101AD00043F020034361436903F020030093009B1C
:101AE0000092036843F004030360006800F0040000
:101AF00000900098C02001900220CDE9020203204E
:101B000004900820059001F5744001A9FEF748FDF6
:101B100006B080BD2DE9F04381B0044690F8410045
:101B2000202809D100294FF0010018BF002A07D151
:101B300001B0BDE8F08300BF022001B0BDE8F08332
:101B40000020606421201D460E4684F8410017469F
:101B5000FEF702FEA784E784A1688146B1F5805FA5
:101B600002D1206900285DD037460020E28C216830
:101B7000002A5DD06A1C24D0002D4AD0804600BFC8
:101B80000868000608D4FEF7E7FDA0EB0900A842AC
:101B90007AD82168C868F3E717B117F8010B04E099
:101BA00038F8020B00276FF35F204860E08C0138A3
:101BB000E084E08C0028E3D13AE000BF0A68120616
:101BC00009D40A68120606D40A6812065CBF0A68BD
:101BD0005FEA0262F2D51FB117F8012B05E000BFE2
:101BE00030F8022B00276FF35F224A60E28C013A43
:101BF000E284E28C002AE4D11AE000BF30F8022B24
:101C000000276FF35F224A60E28C013AE284E28CA3
:101C100072B10A68120635D5002FEFD017F8012BE4
:101C2000F1E700BF00273046E28C2168002AA1D1ED
:101C3000086840061ED42DB3681C14D108684006FD
:101C40002AD40868400627D40868400624D40868C7
:101C500040064FF00000F1D50DE000BF2068C168DC
:101C60000068400618D4FEF777FDA0EB0900A842F3
:101C7000F4D909E00020202184F8411001B0BDE82A
:101C8000F08300BFFEF768FD0320202184F8411097
:101C900001B0BDE8F08300BF0020202184F841108E
:101CA00001B0BDE8F083000080B582B040F22C1096
:101CB000C2F200000821417040F234108DF8071084
:101CC0004FF00A0CC2F200000DF107024E21012371
:101CD000CDF800C0FEF786FF02B080BD10B582B01F
:101CE00041F204040020CEF2000401F089FB102030
:101CF00001F086FB40F21800C2F2000000684DF6C9
:101D00008361C4F21B31A0FB0101890C4FF4FA621C
:101D1000206851432268121A0192019A8A4211D214
:101D20002268121A0192019A8A420BD22268121A70
:101D30000192019A8A4205D22268121A0192019AEE
:101D40008A42E7D302B010BDB0B50C46302101EA9B
:101D5000C0014031C501084601F052FBE8B201F074
:101D60004FFB2078050140F0010000F0F10001F088
:101D700047FB681CC0B201F043FB6078050140F0EE
:101D8000010000F0F10001F03BFB681CC0B201F063
:101D900037FBA078050140F0010000F0F10001F0F0
:101DA0002FFB681CC0B201F02BFBE078050140F06E
:101DB000010000F0F10001F023FB681CC0B201F04B
:101DC0001FFB2079050140F0010000F0F10001F057
:101DD00017FB681CC0B201F013FB6079050140F0ED
:101DE000010000F0F10001F00BFB681CC0B201F033
:101DF00007FBA079050140F0010000F0F10001F0BF
:101E0000FFFA681CC0B201F0FBFAE079040140F06F
:101E1000010000F0F10001F0F3FA601CC0B2BDE86F
:101E2000B04001F0EDBA000010B540F22C10C2F243
:101E30000000C17841F00402C270C02040EA0114E1
:101E400001F0F00001F0DCFAE0B2BDE8104001F072
:101E5000D7BA00002DE9F04182B040F22C14C2F252
:101E60000004082120706170042101284EF6FC5006
:101E700088BF0821A170CEF20000016841F204057C
:101E800021F0807101600168CEF2000541F080719F
:101E9000016055F8040C20F0010045F8040C55F8D9
:101EA000040C40F0010045F8040C002028603220AA
:101EB00000BF00BF00BFFEF75FFB60780A278DF808
:101EC000040040F23410C2F2000001AA4E210123A6
:101ED0000097FEF787FE4FF47A70FEF74DFB302037
:101EE00001F08EFA40F21808C2F20008D8F800009B
:101EF0004DF68367C4F21B37A0FB0701890C41F242
:101F000094122868514300BF2A68121A0192019A5C
:101F10008A4211D22A68121A0192019A8A420BD27D
:101F20002A68121A0192019A8A4205D22A68121A64
:101F30000192019A8A42E7D3302001F061FAD8F881
:101F4000000041F29412A0FB0701890C286851435C
:101F50002A68121A0192019A8A4211D22A68121A28
:101F60000192019A8A420BD22A68121A0192019AAE
:101F70008A4205D22A68121A0192019A8A42E7D34C
:101F8000302001F03DFAD8F8000041F29412A0FB95
:101F90000701890C286851432A68121A0192019A94
:101FA0008A4211D22A68121A0192019A8A420BD2ED
:101FB0002A68121A0192019A8A4205D22A68121AD4
:101FC0000192019A8A42E7D3202001F019FAD8F849
:101FD00000006422A0FB0701890C2868514300BF60
:101FE0002A68121A0192019A8A4211D22A68121A98
:101FF0000192019A8A420BD22A68121A0192019A1E
:102000008A4205D22A68121A0192019A8A42E7D3BB
:10201000A07840F02001060101F0F00001F0F0F995
:10202000F0B201F0EDF90420E070002001F0E8F9D1
:10203000C02001F0E5F9002001F0E2F9102001F0E4
:10204000DFF9D8F800004FF4FA62A0FB0701890C11
:10205000286851432A68121A0192019A8A4211D2C1
:102060002A68121A0192019A8A420BD22A68121A1D
:102070000192019A8A4205D22A68121A0192019AA3
:102080008A42E7D302202071002001F0B9F96020D4
:1020900001F0B6F9D8F8000041F29412A0FB070154
:1020A000890C2868514300BF2A68121A0192019ACC
:1020B0008A4211D22A68121A0192019A8A420BD2DC
:1020C0002A68121A0192019A8A4205D22A68121AC3
:1020D0000192019A8A42E7D340F20004C2F200045E
:1020E00000202146FFF730FE04F108010120FFF730
:1020F0002BFE002001F084F9202001F081F9D8F8AE
:1021000000004FF4FA62A0FB0701890C28685143D4
:102110002A68121A0192019A8A4211D22A68121A66
:102120000192019A8A420BD22A68121A0192019AEC
:102130008A4205D22A68121A0192019A8A42E7D38A
:1021400002B0BDE8F08100000178002908BF7047A7
:10215000B0B5441E41F0010000F0F1000D0101F0A6
:102160004FF9681CC0B201F04BF9A1780134002985
:10217000F0D1BDE8B040704710B540F22C12C2F269
:1021800000021278914228BF511EC9B207A212F86C
:102190002110084440F08001040101F0F00001F03A
:1021A0002FF9E0B2BDE8104001F02AB900000000AC
:1021B000400000001400000054000000FEE7000092
:1021C00070B50368044653F8140F400711D40E4647
:1021D000481C29D086BB00BF1868400527D4FEF7ED
:1021E000BBFA236853F8140F400737D51868400727
:1021F000F2D5002070BD00BF18684007F9D41868F8
:10220000400514D418684007F3D4186840050ED46C
:1022100018684007EDD41868400508D418684007CE
:102220004FF0000048BF70BD18684005E4D56FF45A
:1022300080601860042012E0154603E053F8140F84
:102240004007D6D418684005F1D4FEF785FA401B44
:102250002368B042F2D958694007EFD4202000210A
:102260002022216384F83D2084F83E10226C104324
:102270002064012084F83C1070BD00002DE9F0417D
:10228000054600681E46144601F47F0201338FB2F2
:1022900042D0DDF81880B2F5803F40F08780406979
:1022A0003840C01BB0FA80F04009844240F0C8803A
:1022B0004EB924E040693840C01BB0FA80F04009B4
:1022C000844240F0BD80FEF747FAA0EB0801286881
:1022D000B142EFD941693940C91BB1FA81F14909CD
:1022E0008C42E7D19BE000BF40693840C01BB0FA88
:1022F00080F0400984424FF0000040F0A280FEF7D9
:102300002BFA286841693940C91BB1FA81F14909A2
:102310008C42E9D183E000BFB2F5803F24D100BFF9
:1023200041693940C91BB1FA81F149098C4240F039
:10233000878041693940C91BB1FA81F149098C4252
:1023400040F07E8041693940C91BB1FA81F14909E9
:102350008C4275D141693940C91BB1FA81F14909F3
:102360008C42DDD06CE000BF81693940C91BB1FAF5
:1023700081F149098C4263D181693940C91BB1FAA5
:1023800081F149098C425BD181693940C91BB1FA9D
:1023900081F149098C4253D181693940C91BB1FA95
:1023A00081F149098C42DFD04AE000BF80693840A2
:1023B000C01BB0FA80F04009844241D146B923E005
:1023C00080693840C01BB0FA80F04009844237D1A0
:1023D000FEF7C2F9A0EB08012868B142F0D9816983
:1023E0003940C91BB1FA81F149098C42E8D116E0A4
:1023F00080693840C01BB0FA80F0400984424FF039
:10240000000018BFBDE8F081FEF7A6F928688169D1
:102410003940C91BB1FA81F149098C42E8D1002049
:102420002021286385F83D1085F83E00296C41F095
:102430002001296485F83C000120BDE8F08100BF3F
:102440000020BDE8F0810000F0B581B004460068CE
:102450001D4643698FB203EA0701B94202D1002049
:1024600001B0F0BD4169164601323CD0490512D495
:102470007EB300BFFEF770F9411B2068B14203D95B
:1024800041693940B9422BD141693940B942E6D05E
:1024900041694905EED5016841F4007101606FF4AE
:1024A00080614161042000212022216384F83D20C5
:1024B00084F83E10226C1043206484F83C10012004
:1024C00001B0F0BD41693940B942C8D04169490500
:1024D000E1D4FEF741F9206841693940B942F1D0B1
:1024E0002020E0E741694905D5D441693940B94226
:1024F000B5D041694905CED441693940B942AED021
:1025000041694905C7D441693940B942A7D04169F9
:102510004905C0D441693940B942E3D19FE7000081
:1025200070B504460068154650F8143F5A063DD46D
:102530000E4629B926E000BF50F8141F490635D4CD
:102540000168C90621D4FEF707F9411B2068B14292
:10255000F2D941694906EFD400202021206384F894
:102560003D1084F83E00206C40F0200018E000BFD1
:10257000FEF7F2F8206850F8141F4906ECD5016800
:10258000490613D40168C906F2D56FF01001016045
:1025900000202021206384F83D1084F83E00206C48
:1025A0002064002084F83C00012070BD002070BD34
:1025B00070B50368044653F8140F000611D40E4694
:1025C000481C29D086BB00BF1868400527D4FEF7F9
:1025D000C3F8236853F8140F000637D518680006AF
:1025E000F2D5002070BD00BF18680006F9D4186845
:1025F000400514D418680006F3D4186840050ED4BA
:1026000018680006EDD41868400508D4186800065C
:102610004FF0000048BF70BD18684005E4D56FF466
:1026200080601860042012E0154603E053F8140F90
:102630000006D6D418684005F1D4FEF78DF8401B8B
:102640002368B042F2D958690006EFD42020002157
:102650002022216384F83D2084F83E10226C104330
:102660002064012084F83C1070BD00002DE9F04189
:1026700084B040F20045C4F20205044628464FF4F7
:10268000007100224FF00008FEF760F840F2DC16FF
:102690001A20C2F200068DF80D0064270DF10D011D
:1026A00003AA304601230097FFF714F80DF10F013C
:1026B0000DF10E02304601238DF80F800097FFF7D1
:1026C00009F828464FF400710122FEF73FF842F264
:1026D0009300208002AF0C2021460222234600975F
:1026E00000F098F910B104B0BDE8F081207861786D
:1026F000A278E3784840504021795840401A18BFEA
:102700000120400004B0BDE8F0810000F0B583B0C6
:1027100040F20044C4F2020420464FF4007101224A
:10272000FEF714F8A4F580604FF480710122FEF7E3
:102730000DF820464FF4007100220027FEF706F83E
:1027400040F2DC150220C2F200058DF80B00642671
:102750000DF10B010DF10A02284601230096FEF748
:10276000B9FF0F208DF80B000DF10B010DF10A02DE
:10277000284601230096FEF7ADFF20464FF4007176
:102780000122FDF7E3FF20464FF400710022FDF720
:10279000DDFF54208DF80B000DF10B010DF10A0245
:1027A000284601230096FEF795FF8D208DF80B003B
:1027B0000DF10B010DF10A02284601230096FEF7E8
:1027C00089FF20464FF400710122FDF7BFFF20462C
:1027D0004FF400710022FDF7B9FF56208DF80B0071
:1027E0000DF10B010DF10A02284601230096FEF7B8
:1027F00071FF3E208DF80B000DF10B010DF10A0267
:10280000284601230096FEF765FF20464FF400712D
:102810000122FDF79BFF20464FF400710022FDF7D7
:1028200095FF5A208DF80B000DF10B010DF10A02F6
:10283000284601230096FEF74DFF1E208DF80B0061
:102840000DF10B010DF10A02284601230096FEF757
:1028500041FF20464FF400710122FDF777FF20462B
:102860004FF400710022FDF771FF58208DF80B0026
:102870000DF10B010DF10A02284601230096FEF727
:1028800029FF0DF10B010DF10A02284601238DF8F5
:102890000B700096FEF71EFF20464FF400710122D8
:1028A000FDF754FF20464FF400710022FDF74EFF64
:1028B0002A208DF80B000DF10B010DF10A022846BC
:1028C00001230096FEF706FF40208DF80B000DF166
:1028D0000B010DF10A02284601230096FEF7FAFECD
:1028E00020464FF400710122FDF730FF20464FF4DF
:1028F00000710022FDF72AFF22208DF80B000DF158
:102900000B010DF10A02284601230096FEF7E2FEB4
:102910003D208DF80B000DF10B010DF10A02284648
:1029200001230096FEF7D6FE20464FF400710122E7
:10293000FDF70CFF20464FF400710022FDF706FF63
:10294000A8208DF80B000DF10B010DF10A022846AD
:1029500001230096FEF7BEFE0DF10B010DF10A02F8
:10296000284601238DF80B700096FEF7B3FE204633
:102970004FF400710122FDF7E9FE1420032100F05D
:1029800009FC03B0F0BD00002DE9F04184B040F235
:102990000048C4F202080C46054640464FF4007158
:1029A0000022FDF7D3FE40F2DC171A20C2F2000726
:1029B0008DF80D0064260DF10D0103AA38460123A0
:1029C0000096FEF787FE07208DF80F000DF10F012E
:1029D0000DF10E02384601230096FEF77BFE4046BD
:1029E0004FF400710122FDF7B1FE02AF0C20214629
:1029F000012223462570009700F00CF80299102957
:102A0000014618BF0221002818BF0221084604B061
:102A1000BDE8F0812DE9F04F87B017460C288846B5
:102A20000293049006D00E2808D1112005901220A0
:102A300007E000BF31200590772002E001200590DB
:102A4000002040F20045C4F20205039000F180042A
:102A500028464FF4007100224FF00009FDF776FE82
:102A600040F2DC1A0420C2F2000A8DF81B00642632
:102A70000DF11B010DF11A02504601230096FEF7DD
:102A800029FE0DF11B010DF11A02504601238DF8AC
:102A90001B400096FEF71EFE28464FF400710122EF
:102AA000FDF754FE04208021FDF704FD0A2080215B
:102AB00000F070FB28464FF400710022FDF746FE3F
:102AC00002208DF81B000DF11B010DF11A0250467A
:102AD00001230096FEF7FEFD0DF11B010DF11A0218
:102AE000504601238DF81B900096FEF7F3FD284613
:102AF0004FF400710122FDF729FE77B340F2DC1993
:102B0000A8F1010AC2F200090DF11B080DF11A0427
:102B10001AF801BF28464FF4007100226426FDF721
:102B200015FE12208DF81B0048464146224601231F
:102B30000096FEF7CFFD6426484641462246012313
:102B40008DF81BB00096FEF7C5FD28464FF40071C6
:102B50000122FDF7FBFD013FDAD128464FF4007159
:102B60000022FDF7F3FD40F2DC140220C2F2000463
:102B70008DF81B000DF11B010DF11A0220460123F7
:102B80000096FEF7A7FD049F0DF11B010DF11A023F
:102B9000204601238DF81B700096FEF79BFD28460A
:102BA0004FF400710122FDF7D1FD0C2F03D10D2050
:102BB000802100F0EFFA4FF6300740F2DC1BCFF631
:102BC000FF774FF088084FF0640AC2F2000B0DF156
:102BD0001B060DF11A0400BF28464FF400710022B5
:102BE000FDF7B4FD58463146224601238DF81B807F
:102BF000CDF800A0FEF76EFD00208DF81B005846B2
:102C0000314622460123CDF800A0FEF763FD9DF872
:102C10001A9028464FF400710122FDF797FD013705
:102C200080F0D880059810EA090FD5D00D208021BA
:102C3000FDF740FC28464FF4007100220027FDF705
:102C400085FD40F2DC148C20C2F200048DF81B00DC
:102C500064260DF11B010DF11A0220460123009696
:102C6000FEF738FD0DF11B010DF11A02204601237C
:102C70008DF81B700096FEF72DFD9DF81A40284632
:102C80004FF400710122FDF761FD14F01B0F40F0BD
:102C9000A5800398049900EA09000C2900F00100BE
:102CA00040F09D80059028464FF4007100220026D8
:102CB000FDF74CFD40F2DC199420C2F200090DF141
:102CC0001A0B8DF81B0064240DF11B0148465A466F
:102CD000012300944FF0010AFEF7FCFC0DF11B01EB
:102CE0000DF11A02484601238DF81B600094FEF78F
:102CF000F1FC9DF81A8028464FF400710122FDF77F
:102D000025FD28464FF400710022FDF71FFD982095
:102D10008DF81B000DF11B010DF11A02484601232D
:102D20000094FEF7D7FC0DF11B010DF11A02484685
:102D300001238DF81B600094FEF7CCFC9DF81A600F
:102D400028464FF400710122FDF700FD16F0070040
:102D500040EAC8001099A0F1080008BF4FEAC80077
:102D60000860B8F1010F98BFD046B8F1100F28BF26
:102D70004FF0100802984FF0920A461E28464FF472
:102D800000710022FDF7E2FC0DF11B0748463946B1
:102D90005A4601238DF81BA00094FEF79BFC0020EF
:102DA0008DF81B00484639465A4601230094FEF729
:102DB00091FC9DF81A7028464FF400710122FDF72E
:102DC000C5FCB8F1010806F8017FD7D1059807B016
:102DD000BDE8F08F0D208021FDF76CFB022007B0CD
:102DE000BDE8F08F2DE9F04184B040F28008C2F2D6
:102DF0000008044648F26B0008F11C05ADF8040019
:102E0000642701AA2846D02102230097FDF7EAFE95
:102E10006420FDF7B1FB2078217900F0070040EA3B
:102E200081106B218DF806108DF807000DF1060258
:102E30002846D02102230097FDF7D4FE6420FDF739
:102E40009BFBE0781A2100F007008DF808108DF840
:102E5000090002AA2846D02102230097FDF7C2FEEE
:102E60006078182606EAC0001B218DF80A108DF83C
:102E70000B000DF10A022846D02102230097FDF72E
:102E8000B1FEA0781C2106EAC0008DF80C108DF868
:102E90000D0003AA2846D02102230097FDF7A2FEC9
:102EA00040F21940ADF80E000DF10E022846D02177
:102EB00002230097FDF796FEA078032806D96078D4
:102EC00003280BD904B0BDE8F08100BF07A151F879
:102ED0002000C8F8080060780328F3D807A151F84B
:102EE0002000C8F80C0004B0BDE8F08100007A3D75
:102EF0000000FA3D00007A3E0000FA3E0000FA3B76
:102F000000007A3C0000FA3C00007A3D2DE9F043D5
:102F100085B040F28008054604A8C2F20008461CAD
:102F20003A2008F11C048DF80A004FF00A090DF14F
:102F30000A022046D0210123CDF80090FDF752FE71
:102F400064272046D021324601230097FDF7BCFCC0
:102F50009DF81100002846D03B208DF8040001AAFE
:102F60002046D0210123CDF80090FDF73BFE0DF166
:102F70000A022046D02106230097FDF7A5FCBDF8E4
:102F80000A00BDF80C1000BA000C288008BABDF881
:102F90000E10000C688008BA000CA88043208DF841
:102FA00012000DF112022046D0210123CDF800902D
:102FB000FDF718FE01AA2046D02106230097FDF751
:102FC00083FCBDF80400BDF8061000BA000CA8F898
:102FD000000008BABDF80810000CA8F8020008BAF2
:102FE000000CA8F8040005B0BDE8F08310B582B06D
:102FF00004460DF10200FFF789FFBDF90200BDF99B
:103000000410BDF9062000EE100A40F28000C2F262
:10301000000090ED021A02EE101A03EE102AB8EE2C
:10302000C00AB8EEC22AB8EEC33A21EE000A21EE79
:10303000022A21EE031A84ED000A84ED012A84EDB0
:10304000021A02B010BD000080B5014640F28000B7
:10305000C2F200001C305422FDF794F980BD00003C
:10306000FEE70000FEE70000704700002DE9F04396
:1030700081B0089C984615460E468146FDF76CFBCC
:10308000201A00EB0804FDF767FB40F21801C2F2BA
:1030900000010968C1F3CB3161430091D9F80010F8
:1030A0008A683240921BB2FA82F25209954203D1E9
:1030B000002001B0BDE8F083074618F101000ED1F1
:1030C00030E000BF009801380090D9F80000806817
:1030D0003040801BB0FA80F040098542E8D0FDF70F
:1030E0003BFBC01BA04227D200980028EAD1002455
:1030F000EBE700BF88683040801BB0FA80F04009E1
:103100008542D5D088683040801BB0FA80F04009F5
:103110008542CDD088683040801BB0FA80F04009ED
:103120008542C5D088683040801BB0FA80F04009E5
:103130008542DFD1BCE700BFD9E900014268B1F5A3
:10314000827F22F0E00242600BD1D9F80810B1F57D
:10315000004F02D0B1F5806F03D1016821F040012A
:103160000160D9F82810B1F5005F07D1016821F49A
:1031700000510160016841F400510160012089F8AB
:103180005100002089F85000032001B0BDE8F08311
:10319000704700002DE9F04784B040F20048C4F2C7
:1031A00002088A46064640464FF4007100224FF05E
:1031B0000009FDF7CBFA802040F2DC1540EA46001A
:1031C000C2F200058DF8090064240DF1090102AA7C
:1031D000284601230094FEF77DFA0DF10B010DF155
:1031E0000A02284601238DF80B900094FEF772FA2C
:1031F0009DF80A7040464FF400710122FDF7A6FACF
:1032000040464FF40071002247EA0A07FDF79EFA94
:103210007E2000EA46008DF80D000DF10D0103AA95
:10322000284601230094FEF755FA0DF10F010DF128
:103230000E02284601238DF80F700094FEF74AFA1B
:1032400040464FF400710122FDF780FA04B0BDE85A
:10325000F0870000FDF71CBE70B592B006AC2046AA
:103260003021FDF7C1F8002543F640000595CDE972
:103270000355CDE901550095C4F20200016802260C
:1032800041F080510160006800F08050009000988B
:1032900047F200000095C4F20000016841F480414B
:1032A0000160006800F480400090009801200690C2
:1032B0004FF4803007904FF480000D9004200E9062
:1032C0005420CDE90F060720119020460C96FDF7FB
:1032D00099FF18B172B600BFFEE700BF0F20CDE91D
:1032E00001064FF48050CDE9040501A802210395A1
:1032F000FDF776FE10B172B6FEE700BF12B070BDEA
:103300004EF68850CEF20000016841F47001016071
:1033100070470000B0B50446006804F108030ECB06
:103320000569194325F440552A4302616269E3693E
:103330001143C268194349F20C639A431143C160B7
:103340004169A26921F4407141F20043114340F404
:103350008062C4F201039A42416103D1FDF706FF86
:1033600002E000BFFDF7EEFEE1694FF69C75636871
:103370001922C0F6FF75B1F5004FA0FB02011FD165
:103380005A00DB0FFCF786FF48F21F51C5F2EB1124
:10339000A0FB01235A0905F1805302FB03003223ED
:1033A00003EBC000A0FB01014FF4F87000EA11101C
:1033B00000EB0210C1F34211084421688860B0BDDF
:1033C0009A009B0FFCF766FF48F21F51C5F2EB1104
:1033D000A0FB01235A0902FB0500322303EB001076
:1033E000A0FB0101F02000EA511000EB0210C1F334
:1033F0004311084421688860B0BD0000FEE700006A
:103400002DE9F04385B040F22C19C2F200090446C0
:1034100099F8010040F234152043C2F2000541F250
:1034200004068DF806000A270DF1060228464E21F3
:103430000123CEF200060097FDF7D4FB99F80100B6
:103440000DF10702204340F004008DF807002846E4
:103450004E2101230097FDF7C5FB40F21808C2F288
:103460000008D8F800004DF68365C4F21B35A0FBB8
:103470000501880C00EB8001306889003268121A5F
:103480000292029A8A4211D23268121A0292029A67
:103490008A420BD23268121A0292029A8A4205D2EA
:1034A0003268121A0292029A8A42E7D399F801000E
:1034B00004F0FB0108438DF80F0040F234100A2796
:1034C000C2F200000DF10F024E2101230097FDF71B
:1034D00089FBD8F80000A0FB0501880C00EB8001F7
:1034E000306889003268121A0492049A8A4211D212
:1034F0003268121A0492049A8A420BD23268121A63
:103500000492049A8A4205D23268121A0492049AEA
:103510008A42E7D305B0BDE8F08300008AB040F6E8
:10352000004B48F2A066C4F2020BC0F20106FDF7A0
:10353000BDFCFFF791FE002743F630000997CDE967
:103540000777CDE905770497C4F2020001680022ED
:1035500041F08001016001684FF4604501F0800195
:10356000049104990497016841F001010160016828
:1035700001F00101049104990497016841F00201EE
:103580000160016801F00201049104990497016847
:1035900041F008010160016801F0080104910499FB
:1035A0000497016841F00401016000684FF4604134
:1035B00000F00400049004985846FDF7C7F8ABF5F6
:1035C000406840464FF480710022FDF7BFF8ABF52C
:1035D000006948464FF4007100224FF4007AFDF76D
:1035E000B5F8082005ACCDE9050740462146079708
:1035F000FCF7D6FF05953546012658462146CDE90C
:1036000006670897FCF7CCFF4FF4807005A9C1C18D
:10361000404621460897FCF7C3FF48462146CDE9BE
:1036200005A6CDE90777FCF7BBFF40F23410ABF5F8
:10363000DC31C2F200004FF4804480E8A200C0E90F
:103640000374C0E90577C0E90777FDF78BF818B177
:1036500072B600BFFEE700BF40F28810ABF5DA316A
:10366000C2F2000080E8A200C0E90374C0E9057757
:10367000C0E90777FDF776F810B172B6FEE700BF34
:1036800040F2DC10ABF55C41C2F200004FF48272F4
:1036900000244FF40073102780E816000A21C0E9C7
:1036A0000344C0E90543C761C0E90844C0E90A41D1
:1036B000FDF77EFF10B172B6FEE700BF40F2342086
:1036C000ABF57841C2F200000C234FF4E13280E800
:1036D0001600C0E90344C0E90534C461FEF7B0F93F
:1036E00010B172B6FEE700BFFFF710F840F2881085
:1036F000C2F20000FFF7A8FC40F20110C0F2010086
:103700000024CDF8150005A88DF81440FFF76AFBDA
:10371000FEF7CAFA0220FEF79DFBFEF7DFFA40F241
:10372000F00AC2F2000A40F23427CAE90544CAF896
:103730001C40CAF80840AAF80C400AF10E050AF12C
:103740002004C2F200070FF2E029BCA60395CDE9E0
:10375000018409E058464FF400510022FCF7F6FFBF
:103760004FF47A70FCF708FFFEF7B8FA2846FFF727
:10377000CDFB2046FFF73AFCBAF80E00BAF8081065
:10378000484000B2000B000612D1BAF81000BAF897
:103790000A10484000B2000B000609D1BAF8120026
:1037A000BAF80C10484000B2000B000600F02E8161
:1037B00058464FF480410122FCF7C8FF384649467D
:1037C00013224FF47A73FEF7A5F96420FCF7D4FEB8
:1037D00000200121FEF7D0FC3046FEF7B5FC4FF487
:1037E0007A70FCF7C9FEBAF81200DAF80E10AAF8DF
:1037F0000C00CAF8081040460821FCF7A1FF002879
:10380000A8D158464FF4005101225E46FCF79EFFB6
:10381000384691A10E224FF47A733D46FEF77AF9AD
:103820006420FCF7A9FEFEF759FA002000210024CD
:10383000FEF7A2FC8CA0FEF787FC00200121FEF71A
:103840009BFC8DA0FEF780FCFEF7EEFA4FF47A7039
:10385000FCF792FE8AF80640CAF802408AF8004057
:10386000E0B2182820D80AF12C0826204146FFF79C
:103870008BF88AF801004046FEF7F8FE8AF801004E
:10388000C820FCF779FE9AF800009AF80110441C51
:1038900000298AF80040E3D19AF83000DAF82C10B9
:1038A0008AF80600CAF802109AF80400C82855D011
:1038B00025282BD0DDF804802F46DDE9024520289D
:1038C000B3467BD1FEF70AFA00200021FEF754FC34
:1038D00043F6F620C0F60000FEF736FCFEF7A4FA29
:1038E0006420FCF749FE43F601313846C0F600017A
:1038F00010224FF47A73FEF70DF940F6B830FCF75A
:103900003BFE00208AF804004CA62DE7FEF7E6F9FE
:1039100000200021FEF730FC43F6F620C0F6000040
:10392000FEF712FCFEF780FA6420FCF725FE43F652
:1039300001312846C0F6000110224FF47A732F4659
:10394000FEF7E8F840F6B830FCF716FEDDF8048024
:103950000020B3468AF804002CE000BF284649A1A5
:1039600013224FF47A73FEF7D5F830464FF4004136
:103970000122B346FCF7EAFE6420FCF7FDFDFEF7EA
:10398000ADF900200021FEF7F7FB43A0FEF7DCFBBA
:10399000FEF74AFA40F6B830FCF7EEFD00208AF850
:1039A000040030464FF400410022FCF7CFFEDDF862
:1039B00004802F46DDE9024520A6D5E658464FF49F
:1039C00000410122FCF7C2FEFEF788F90020002129
:1039D000FEF7D2FB34A0FEF7B7FBFEF725FA642012
:1039E000FCF7CAFD384632A110224FF47A73FEF775
:1039F00091F840F6B830FCF7BFFD58464FF400414F
:103A00000022FCF7A3FE0DA6AEE600BF00200121B8
:103A1000FEF7B2FB0BA0FEF797FB58464FF4804130
:103A20000022FCF793FEDEE6546865207468696E38
:103A300067206973206D6F766564000044616E676E
:103A4000657200002020202020202020202020201F
:103A50002020202000000000456E747279206465EB
:103A60007465637465640000456E74727920446502
:103A700074656374656400005363616E2043617212
:103A800064000000556E617574686F72697A6564D0
:103A90002061636365737300756E617574686F721E
:103AA000697A6564000000004E6F207363616E00E8
:103AB0004E6F207363616E20646574656374656422
:103AC00000000000F1EE100A4FF6FF71C0F2C031A5
:103AD00020EA010040F04070E1EE100A704700005B
:103AE00000000000000001020304060708090000AE
:103AF000000001020304417574686F72697A65649D
:103B000000417574686F72697A6564616363657397
:103B100073000000383B0008000000202000000077
:103B2000EC010008583B000820000020600800005D
:103B30000C0200080000000000191B060C1B1300FB
:103B4000181806090809060001000000100000000E
:083B50000024F4000000000055
:040000050800018965
:00000001FF
